{
  "contractName": "TruffleStorage",
  "abi": [
    {
      "constant": true,
      "inputs": [],
      "name": "data",
      "outputs": [
        {
          "name": "",
          "type": "string"
        }
      ],
      "payable": false,
      "stateMutability": "view",
      "type": "function"
    },
    {
      "inputs": [],
      "payable": false,
      "stateMutability": "nonpayable",
      "type": "constructor"
    },
    {
      "constant": false,
      "inputs": [
        {
          "name": "_data",
          "type": "string"
        }
      ],
      "name": "set",
      "outputs": [],
      "payable": false,
      "stateMutability": "nonpayable",
      "type": "function"
    },
    {
      "constant": true,
      "inputs": [],
      "name": "get",
      "outputs": [
        {
          "name": "",
          "type": "string"
        }
      ],
      "payable": false,
      "stateMutability": "view",
      "type": "function"
    }
  ],
  "bytecode": "0x608060405234801561001057600080fd5b50610429806100206000396000f3fe608060405260043610610057576000357c0100000000000000000000000000000000000000000000000000000000900463ffffffff1680634ed3885e1461005c5780636d4ce63c146100e257806373d4a13a14610172575b600080fd5b34801561006857600080fd5b506100e06004803603602081101561007f57600080fd5b810190808035906020019064010000000081111561009c57600080fd5b8201836020820111156100ae57600080fd5b803590602001918460018302840111640100000000831117156100d057600080fd5b9091929391929390505050610202565b005b3480156100ee57600080fd5b506100f7610218565b6040518080602001828103825283818151815260200191508051906020019080838360005b8381101561013757808201518184015260208101905061011c565b50505050905090810190601f1680156101645780820380516001836020036101000a031916815260200191505b509250505060405180910390f35b34801561017e57600080fd5b506101876102ba565b6040518080602001828103825283818151815260200191508051906020019080838360005b838110156101c75780820151818401526020810190506101ac565b50505050905090810190601f1680156101f45780820380516001836020036101000a031916815260200191505b509250505060405180910390f35b818160009190610213929190610358565b505050565b606060008054600181600116156101000203166002900480601f0160208091040260200160405190810160405280929190818152602001828054600181600116156101000203166002900480156102b05780601f10610285576101008083540402835291602001916102b0565b820191906000526020600020905b81548152906001019060200180831161029357829003601f168201915b5050505050905090565b60008054600181600116156101000203166002900480601f0160208091040260200160405190810160405280929190818152602001828054600181600116156101000203166002900480156103505780601f1061032557610100808354040283529160200191610350565b820191906000526020600020905b81548152906001019060200180831161033357829003601f168201915b505050505081565b828054600181600116156101000203166002900490600052602060002090601f016020900481019282601f1061039957803560ff19168380011785556103c7565b828001600101855582156103c7579182015b828111156103c65782358255916020019190600101906103ab565b5b5090506103d491906103d8565b5090565b6103fa91905b808211156103f65760008160009055506001016103de565b5090565b9056fea165627a7a72305820df64ebaa08259e4ffdb53035984b1721ea8dfd40a0faffcda43e8438bd4aa96d0029",
  "source": "pragma solidity ^0.5.0;\n\ncontract TruffleStorage {\n  // state\n  string public data;\n\n  // events\n\n  // constructor\n  constructor() public {\n  }\n\n  // functions\n  function set(string calldata _data) external {\n    data = _data;\n  }\n\n  function get() external view returns (string memory) {\n    return data;\n  }\n\n  // modifiers\n\n  // fallback\n}",
  "sourcePath": "/Users/bluer/Developer/truffle-u-storage/contracts/TruffleStorage.sol",
  "compiler": {
    "name": "solc",
    "version": "0.5.0+commit.1d4f565a.Emscripten.clang"
  },
  "schemaVersion": "3.0.0",
  "updatedAt": "2019-04-10T20:41:38.252Z",
  "devdoc": {
    "methods": {}
  },
  "userdoc": {
    "methods": {}
  }
}